:020000040800F2
:1000000000000120C93A0008193B0008193B00080C
:10001000193B0008193B0008193B000800000000CC
:10002000000000000000000000000000711D00083A
:10003000193B000800000000C11F0008292000082B
:1000400000000000193B0008193B0008193B00089C
:10005000193B0008193B0008193B0008193B000830
:10006000193B0008193B0008193B0008000000007C
:100070000000000000000000000000000000000080
:100080000000000000000000193B00080000000014
:10009000000000000000000000000000193B000804
:1000A000193B0008193B0008193B0008193B0008E0
:1000B000193B0008193B0008193B0008193B0008D0
:1000C000193B0008193B0008193B0008193B0008C0
:1000D000193B0008193B0008193B0008000000000C
:1000E000193B0008193B0008193B000800000000FC
:1000F0000000000000000000000000000000000000
:1001000000000000193B0008193B0008193B0008DB
:1001100000000000000000000000000000000000DF
:1001200000000000000000000000000000000000CF
:1001300000000000000000000000000000000000BF
:10014000000000000000000000000000193B000853
:10015000000000000000000000000000193B000843
:10016000193B0008193B00080000000000000000D7
:10017000000000000000000000000000000000007F
:1001800000000000193B0008000000000000000013
:04019000193B00080F
:1001A00010B5054C237833B9044B13B10448AFF3B1
:1001B00000800123237010BD080000200000000013
:1001C000903B000808B5034B1BB103490348AFF34C
:1001D000008008BD000000000C000020903B0008DB
:1001E00080B500AF164B00221A71154B1A79144BCB
:1001F000DA70134BDA78124B9A70114B9A78104BD5
:100200005A700F4B5A780E4B1A700021032000F0E1
:1002100061FE01220321022000F082F90122032164
:10022000022000F02FFB1821022000F0C7FF02205F
:1002300001F058F8022001F06FF800BF80BD00BF48
:100240002400002080B582B000AF012203210220EB
:1002500000F066F900220321022000F013FB1221B6
:10026000022000F076FF002318224FF6FF710220D3
:1002700000F039FF00220321022000F051F9012291
:100280000321022000F0E0FB022000F085FF03467E
:100290005E4A13605E4B1B69DB08DBB203F00103AF
:1002A000DAB25C4B1A705B4B1B78012B05D1022034
:1002B00001F04CF80346002BECD0022000F06CFF5C
:1002C0000346554A1360544B1A68504B1B68D31AA7
:1002D000524A1360514B1B682A2B00F28F80022078
:1002E00001F034F80346012B00F08880022000F072
:1002F00053FF0346454A1360454B1B69DB08DBB2DD
:1003000003F00103DAB2434B1A70424B1B78002B07
:1003100005D1022001F01AF80346002BECD0022090
:1003200000F03AFF03463C4A13603B4B1A68374BD8
:100330001B68D31A394A1360384B1B68522B5FD89D
:10034000022001F003F80346012B59D0022000F0EF
:1003500023FF03462D4A13602E4A0321022000F09A
:100360000FFB2C4B1B78012B05D1022000F0EEFF78
:100370000346002BF0D0022000F00EFF0346264A71
:100380001360254B1A68214B1B68D31A234A13604C
:10039000224B1B685A2B35D8022000F0D7FF0346AA
:1003A000012B2FD00023FB711AE0FB79DB08DAB2B6
:1003B00011461B4B5B5C5B00D9B2194B995400F0A2
:1003C0005BF803461946FB79DB08DAB21046144B9A
:1003D0001B5C0B44D9B2124B9954FB790133FB716E
:1003E000FB79272BE1D901220321022000F098F8A4
:1003F00001220321022000F0ADF904E000BF02E079
:1004000000BF00E000BF0837BD4680BD2C000020C3
:1004100000040240290000203000002034000020A9
:100420002400002080B483B000AF78603960114BA5
:100430001B781A460F4B5B7813440E4A927813448C
:100440000C4AD27813440B4A1279934201D002230A
:1004500009E0084B1A787B681A70064B9B785AB2F1
:100460003B681A70002318460C37BD465DF8047BC4
:10047000704700BF2400002080B500AF234B1B69EC
:10048000DB08DBB203F00103DAB2214B1A70204B18
:100490001B78002B05D1022000F058FF0346002BEB
:1004A000ECD0022000F078FE03461A4A1360174B86
:1004B0001B69DB08DBB203F00103DAB2144B1A70DC
:1004C000134B1B78012B05D1022000F03FFF0346A0
:1004D000002BECD0022000F05FFE03460E4A1360B2
:1004E0000D4B1A680B4B1B68D31A0C4A13600B4B4D
:1004F0001B68232B05D8022000F028FF0346012BA0
:1005000001D1012300E00023184680BD0004024011
:10051000290000202C0000203000002034000020A2
:1005200080B485B000AF0346FB710B46BB71134628
:100530007B710023FB73FB79012B02D1BB790F2B5D
:100540000ED9FB79022B02D1BB790F2B08D9FB798D
:10055000032B57D1BB790C2B02D8BB790F2B51D869
:10056000BB795B00BB71FB79032B32D0032B45DCDD
:10057000012B02D0022B16D040E0274B1B68BA7922
:10058000032101FA02F2D2431146234A0B401360C1
:10059000214B1B687979BA7901FA02F211461E4A99
:1005A0000B4313602DE01D4B1B68BA79032101FA40
:1005B00002F2D2431146194A0B401360174B1B68D5
:1005C0007979BA7901FA02F21146144A0B431360A1
:1005D00017E0134B1B68BA79032101FA02F2D243E8
:1005E00011460F4A0B4013600D4B1B687979BA799D
:1005F00001FA02F211460A4A0B4313600423FB730B
:1006000000BF01E00423FB73FB7B18461437BD4693
:100610005DF8047B704700BF000002400004024008
:100620000008024080B485B000AF0346FB710B4662
:10063000BB7113467B710023FB73FB79012B02D145
:10064000BB790F2B0ED9FB79022B02D1BB790F2B73
:1006500008D9FB79032B6ED1BB790C2B02D8BB795F
:100660000F2B68D87B79002B30D1FB79032B1ED060
:10067000032B28DC012B02D0022B0CD023E0324BC1
:100680005B68BA79012101FA02F2D24311462E4A7F
:100690000B4053604EE02D4B5B68BA79012101FAA3
:1006A00002F2D2431146294A0B40536042E0284BE4
:1006B0005B68BA79012101FA02F2D2431146244A59
:1006C0000B40536036E00423FB7333E07B79012B4E
:1006D0002DD1FB79032B1CD0032B25DC012B02D061
:1006E000022B0BD020E0184B5B68BA79012101FA8C
:1006F00002F21146144A0B4353601BE0134B5B6834
:10070000BA79012101FA02F21146104A0B435360F3
:1007100010E00F4B5B68BA79012101FA02F2114631
:100720000B4A0B43536005E00423FB7302E00523EF
:10073000FB7302E001E00423FB73FB7B18461437D4
:10074000BD465DF8047B7047000002400004024093
:100750000008024080B485B000AF0346FB710B4631
:10076000BB7113467B710023FB73FB79012B02D114
:10077000BB790F2B0ED9FB79022B02D1BB790F2B42
:1007800008D9FB79032B6ED1BB790C2B02D8BB792E
:100790000F2B68D87B79002B30D1FB79032B1ED02F
:1007A000032B28DC012B02D0022B0CD023E0324B90
:1007B0005B69BA79012101FA02F2D24311462E4A4D
:1007C0000B4053614EE02D4B5B69BA79012101FA70
:1007D00002F2D2431146294A0B40536142E0284BB2
:1007E0005B69BA79012101FA02F2D2431146244A27
:1007F0000B40536136E00423FB7333E07B79012B1C
:100800002DD1FB79032B1CD0032B25DC012B02D02F
:10081000022B0BD020E0184B5B69BA79012101FA59
:1008200002F21146144A0B4353611BE0134B5B6900
:10083000BA79012101FA02F21146104A0B435361C1
:1008400010E00F4B5B69BA79012101FA02F21146FF
:100850000B4A0B43536105E00423FB7302E00523BD
:10086000FB7302E001E00423FB73FB7B18461437A3
:10087000BD465DF8047B7047000002400004024062
:100880000008024080B485B000AF0346FB710B4600
:10089000BB7113467B710023FB73FB79012B02D1E3
:1008A000BB790F2B0ED9FB79022B02D1BB790F2B11
:1008B00008D9FB79032B53D1BB790C2B02D8BB7918
:1008C0000F2B4DD87B79002B21D1FB79032B14D032
:1008D000032B19DC012B02D0022B07D014E0BB79CB
:1008E00001229A40234B92B25A8338E0BB7901220D
:1008F0009A40214B92B25A8331E0BB7901229A404F
:100900001E4B92B25A832AE00423FB7327E07B79C3
:10091000012B21D1FB79032B14D0032B19DC012BE4
:1009200002D0022B07D014E0BB7901229A40114B70
:1009300092B21A8313E0BB7901229A400E4B92B215
:100940001A830CE0BB7901229A400C4B92B21A83B5
:1009500005E00423FB7302E00523FB7302E001E0E2
:100960000423FB73FB7B18461437BD465DF8047BFC
:10097000704700BF0000024000040240000802402F
:1009800080B485B000AF03463A60FB710B46BB7183
:100990000023FB73FB79012B02D1BB790F2B0ED9FE
:1009A000FB79022B02D1BB790F2B08D9FB79032BE2
:1009B0003AD1BB790C2B02D8BB790F2B34D83B68CA
:1009C000002B31D0FB79032B1ED0032B28DC012B0D
:1009D00002D0022B0CD023E0184B1A69BB7922FA03
:1009E00003F3DBB203F00103DAB23B681A701AE0DA
:1009F000134B1A69BB7922FA03F3DBB203F001034C
:100A0000DAB23B681A700EE00E4B1A69BB7922FA13
:100A100003F3DBB203F00103DAB23B681A7002E0C1
:100A20000423FB7300BF01E00423FB73FB7B184628
:100A30001437BD465DF8047B704700BF00000240DC
:100A4000000402400008024080B485B000AF0346B5
:100A5000FB710B46BB7113467B710023FB73FB7963
:100A6000012B02D1BB790F2B0ED9FB79022B02D1BE
:100A7000BB790F2B08D9FB79032B57D1BB790C2BF2
:100A800002D8BB790F2B51D8BB795B00BB71FB79C6
:100A9000032B32D0032B45DC012B02D0022B16D0C6
:100AA00040E0274BDB68BA79032101FA02F2D24316
:100AB0001146234A0B40D360214BDB687979BA7920
:100AC00001FA02F211461E4A0B43D3602DE01D4B82
:100AD000DB68BA79032101FA02F2D2431146194ABE
:100AE0000B40D360174BDB687979BA7901FA02F2CF
:100AF0001146144A0B43D36017E0134BDB68BA79F5
:100B0000032101FA02F2D24311460F4A0B40D3608F
:100B10000D4BDB687979BA7901FA02F211460A4A7B
:100B20000B43D3600423FB7300BF01E00423FB737A
:100B3000FB7B18461437BD465DF8047B704700BF49
:100B400000000240000402400008024080B485B06A
:100B500000AF0346FB710B46BB7113467B7100234C
:100B6000FB73FB79012B02D1BB790F2B10D9FB79D9
:100B7000022B02D1BB790F2B0AD9FB79032B40F052
:100B8000BF80BB790C2B03D8BB790F2B00F2B88048
:100B9000BB79072B54D8FB79032B36D0032B4CDCC5
:100BA000012B02D0022B18D047E05A4B1B6ABA79AE
:100BB00092000F2101FA02F2D2431146554A0B402E
:100BC0001362544B1B6A7979BA79920001FA02F2E6
:100BD0001146504A0B43136291E04F4B1B6ABA799E
:100BE00092000F2101FA02F2D24311464A4A0B4009
:100BF0001362494B1B6A7979BA79920001FA02F2C1
:100C00001146454A0B43136279E0444B1B6ABA799B
:100C100092000F2101FA02F2D24311463F4A0B40E3
:100C200013623E4B1B6A7979BA79920001FA02F29B
:100C300011463A4A0B43136261E00423FB735EE002
:100C4000BB79072B5AD9FB79032B3AD0032B52DC03
:100C5000012B02D0022B1AD04DE02E4B5B6ABA79E1
:100C6000083A92000F2101FA02F2D2431146294AB2
:100C70000B405362274B5B6A7979BA79083A920044
:100C800001FA02F21146234A0B43536237E0224B2A
:100C90005B6ABA79083A92000F2101FA02F2D24354
:100CA00011461D4A0B4053621B4B5B6A7979BA7936
:100CB000083A920001FA02F21146174A0B435362B6
:100CC0001DE0164B5B6ABA79083A92000F2101FACF
:100CD00002F2D2431146114A0B4053620F4B5B6A3A
:100CE0007979BA79083A920001FA02F211460B4A70
:100CF0000B43536203E00423FB7300E000BF01E0F9
:100D00000423FB73FB7B18461437BD465DF8047B58
:100D1000704700BF0000024000040240000802408B
:100D200080B483B000AF786000BF0F4B9B685B0856
:100D300003F00103002B06D10B4B9B68DB0903F08A
:100D40000103012BF1D0BB791A467B7919463B7917
:100D50001B010B431B021A43034BDA6000BF0C3725
:100D6000BD465DF8047B70470038004080B485B014
:100D700000AF0023FB73544B1B68534A43F400231A
:100D80001360514B1B68504A23F4802313604E4B71
:100D90001B684D4A23F0010313604B4B1B684A4A02
:100DA00043F480331360484B1B68474A23F0807339
:100DB0001360454B1B68444A23F080631360424B29
:100DC0009B68414A23F0800393603F4B9B683E4AF7
:100DD00023F4805393603C4B9B683B4A23F40043CD
:100DE0009360394B5B68384A23F03F035360364BBE
:100DF0005B68354A43F03F035360334B5B68324ACC
:100E000023F4FF4323F0400353602F4B5B682E4ACB
:100E100043F4405353602C4B5B682B4A23F48033DC
:100E20005360294B5B68284A23F400335360264BF8
:100E30005B68254A23F4800353600323BB60BB68CF
:100E4000224A02FB03F35B087B607B68204A9342E3
:100E500003D90323FB73FB7B30E01B4B9B681A4ACF
:100E600023F080639360184B9B68174A23F000536C
:100E70009360154B9B68144A23F400139360124B44
:100E80009B68114A23F4800393600F4B9B680E4AC2
:100E900023F0804393600C4B9B680B4A23F0004384
:100EA0009360094B9B68084A43F001039360064B2B
:100EB0009B68054A23F002039360FB7B18461437B6
:100EC000BD465DF8047B7047003802400024F40002
:100ED00000BD010580B485B000AF03460A46FB7132
:100EE0001346BB710023FB73BB791F2B3DD8FB79E5
:100EF000013B032B36D801A252F823F00D0F000856
:100F0000230F0008390F00084F0F00081B4B1B6B05
:100F1000BA79012101FA02F21146184A0B43136310
:100F200025E0164B5B6BBA79012101FA02F21146FA
:100F3000124A0B4353631AE0104B1B6CBA79012120
:100F400001FA02F211460D4A0B4313640FE00B4BFA
:100F50005B6CBA79012101FA02F21146074A0B4390
:100F6000536404E00223FB7301E00123FB73FB7B6A
:100F700018461437BD465DF8047B704700380240C0
:100F800080B485B000AF7860084611461A46034623
:100F9000FB700B46BB7013467B700023FB737B68B2
:100FA0001B687A78D2001A437B681A60BB78002BE2
:100FB00006D17B681B6823F002027B681A600DE093
:100FC000BB78012B06D17B681B6843F002027B686B
:100FD0001A6003E00E23FB73FB7B62E0FB78002BBF
:100FE00006D17B681B6823F001027B681A600DE064
:100FF000FB78012B06D17B681B6843F001027B68FC
:101000001A6003E00D23FB73FB7B4AE03B7F002B60
:1010100006D17B681B6823F400627B681A600DE0D0
:101020003B7F012B06D17B681B6843F400627B6821
:101030001A6003E01223FB73FB7B32E03B7E002B44
:1010400006D17B681B6823F080027B681A600DE084
:101050003B7E012B06D17B681B6843F080027B68D6
:101060001A6003E01023FB73FB7B1AE097F8203033
:10107000002B06D17B681B6823F040027B681A6056
:101080000EE097F82030012B06D17B681B6843F0F7
:1010900040027B681A6003E01323FB73FB7B00E0D4
:1010A000FB7B18461437BD465DF8047B704780B45F
:1010B00083B000AF78607B681B6843F004027B68F4
:1010C0001A607B681B6843F400727B681A607B6857
:1010D0001B6843F480727B681A6000BF0C37BD4602
:1010E0005DF8047B704780B584B000AFB9607A606A
:1010F0001A460346FB731346BB73FB7B184600F08E
:10110000A3F8FB7B7968184600F058F8FB7BB968B8
:10111000184600F069F8BB7B012B03D1FB7B184616
:1011200000F0C6F8FB7B184600F0DCF8FB7B1846A5
:1011300000F0F2F8BB7B012B03D1FB7B184600F0DB
:101140009DF8FB7B184600F065F800BF1037BD46E0
:1011500080BD80B582B000AF03463960FB71F8797D
:10116000002346F2A7123968FFF7BDFF00E000BF79
:10117000FB79184600F0EAF80346002BF7D0FB791C
:10118000184600F061F8FB79184600F0C5F800BF7A
:101190000837BD4680BD000080B483B000AF034671
:1011A000FB71FB79044A52F823305B6A18460C370E
:1011B000BD465DF8047B7047C03B000880B483B037
:1011C00000AF03463960FB71FB79064A52F82330C1
:1011D0001A463B68936200BF0C37BD465DF8047B3E
:1011E000704700BFC03B000880B483B000AF034627
:1011F0003960FB71FB79064A52F823301A463B6886
:10120000D36200BF0C37BD465DF8047B704700BF5A
:10121000C03B000880B483B000AF0346FB71FB798C
:10122000084A52F823301B68FA79064951F82220FF
:1012300043F00103136000BF0C37BD465DF8047B2B
:10124000704700BFC03B000880B483B000AF0346C6
:10125000FB71FB79084A52F823301B68FA7906497A
:1012600051F8222023F00103136000BF0C37BD4664
:101270005DF8047B704700BFC03B000880B483B0BA
:1012800000AF0346FB71FB79084A52F82330DB6854
:10129000FA79064951F8222043F00103D36000BFD8
:1012A0000C37BD465DF8047B704700BFC03B0008AB
:1012B00080B483B000AF0346FB71FB79084A52F853
:1012C0002330DB68FA79064951F8222023F0010324
:1012D000D36000BF0C37BD465DF8047B704700BF8C
:1012E000C03B000880B483B000AF0346FB71FB79BC
:1012F000084A52F823305B69FA79064951F82220EE
:1013000043F00103536100BF0C37BD465DF8047B19
:10131000704700BFC03B000880B483B000AF0346F5
:10132000FB71FB79084A52F823301B69FA790649A8
:1013300051F8222023F00103136100BF0C37BD4692
:101340005DF8047B704700BFC03B000880B483B0E9
:1013500000AF0346FB71FB79064A52F823301B6944
:10136000DBB203F00103DBB218460C37BD465DF873
:10137000047B7047C03B000880B58AB000AF78603E
:101380000023FB6101F0AEFB654B1B68002B01D114
:1013900000F034F9634B1A687B681340002B40F06F
:1013A000A7807B68002B2DD008227B6813447A68C5
:1013B0009A4227D208227B6813447B607B6803F043
:1013C0000703002B21D07B6823F0070308337A68DA
:1013D0009A4214D27B6823F0070308337B607B6852
:1013E00003F00703002B10D04FF0500383F3118854
:1013F000BFF36F8FBFF34F8F7B6100BFFEE700230A
:101400007B6002E000237B6000E000BF7B68002B74
:101410006ED0454B1B687A689A4269D8434B3B6251
:10142000424B1B687B6204E07B6A3B627B6A1B6801
:101430007B627B6A5B687A689A4203D97B6A1B6825
:10144000002BF1D1364B1B687A6A9A4250D03B6A26
:101450001B6808221344FB617B6A1A683B6A1A60A6
:101460007B6A5A687B68D21A08235B009A421FD9AC
:101470007A6A7B681344BB61BB6903F00703002BE6
:101480000AD04FF0500383F31188BFF36F8FBFF37F
:101490004F8F3B6100BFFEE77B6A5A687B68D21AB8
:1014A000BB695A607B6A7A685A60B86900F008F9CB
:1014B0001D4B1A687B6A5B68D31A1B4A13601A4B70
:1014C0001A681B4B1B689A4203D2174B1B68184AB9
:1014D00013607B6A5A68134B1B681A437B6A5A6015
:1014E0007B6A00221A60134B1B680133114A136098
:1014F00001F006FBFB6903F00703002B0AD04FF055
:10150000500383F31188BFF36F8FBFF34F8FFB60DE
:1015100000BFFEE7FB6918462837BD4680BD00BF07
:1015200040C8002054C8002044C8002038C800200B
:1015300048C800204CC8002080B586B000AF786055
:101540007B687B617B68002B4DD008235B427A6906
:1015500013447B617B693B613B695A68244B1B6880
:101560001340002B0AD14FF0500383F31188BFF3CF
:101570006F8FBFF34F8FFB6000BFFEE73B691B68B7
:10158000002B0AD04FF0500383F31188BFF36F8F05
:10159000BFF34F8FBB6000BFFEE73B695A68144B37
:1015A0001B681340002B1ED03B691B68002B1AD10F
:1015B0003B695A680E4B1B68DB431A403B695A6013
:1015C00001F090FA3B695A680A4B1B681344094AB8
:1015D0001360386900F074F8074B1B680133064A42
:1015E000136001F08DFA00BF1837BD4680BD00BF03
:1015F00054C8002044C8002050C8002080B485B0E2
:1016000000AF4FF44843BB60274BFB60FB6803F01F
:101610000703002B0CD0FB680733FB60FB6823F04B
:101620000703FB60BA68FB68D31A1F4A1344BB6008
:10163000FB687B601D4A7B6813601C4B00225A606C
:101640007B68BA681344FB600822FB689B1AFB6046
:10165000FB6823F00703FB60FB68154A1360144B1B
:101660001B6800225A60124B1B6800221A607B68BC
:101670003B603B68FA68D21A3B685A600C4B1A68A8
:101680003B681A603B685B680A4A13603B685B68AA
:10169000094A1360094B4FF000421A6000BF14372B
:1016A000BD465DF8047B70473800002038C8002034
:1016B00040C8002048C8002044C8002054C800206A
:1016C00080B485B000AF7860284BFB6002E0FB6817
:1016D0001B68FB60FB681B687A689A42F7D8FB6856
:1016E000BB60FB685B68BA6813447A689A4208D1A9
:1016F000FB685A687B685B681A44FB685A60FB6841
:101700007B607B68BB607B685B68BA681A44FB6877
:101710001B689A4218D1FB681A68154B1B689A42DD
:101720000DD07B685A68FB681B685B681A447B684D
:101730005A60FB681B681A687B681A6008E00C4BEB
:101740001A687B681A6003E0FB681A687B681A6095
:10175000FA687B689A4202D0FB687A681A6000BF18
:101760001437BD465DF8047B704700BF38C80020C1
:1017700040C8002080B483B000AF78607B6803F17C
:1017800008027B685A607B684FF0FF329A607B6882
:1017900003F108027B68DA607B6803F108027B686A
:1017A0001A617B6800221A6000BF0C37BD465DF8E5
:1017B000047B704780B483B000AF78607B68002200
:1017C0001A6100BF0C37BD465DF8047B704780B4DA
:1017D00085B000AF786039603B681B68BB60BB6850
:1017E000B3F1FF3F03D17B681B69FB600CE07B68B2
:1017F0000833FB6002E0FB685B68FB60FB685B68CA
:101800001B68BA689A42F6D2FB685A683B685A600D
:101810003B685B683A689A603B68FA689A60FB6864
:101820003A685A603B687A681A617B681B685A1C80
:101830007B681A6000BF1437BD465DF8047B7047B3
:1018400080B485B000AF78607B681B69FB607B6803
:101850005B687A6892689A607B689B687A6852686D
:101860005A60FB685B687A689A4203D17B689A6821
:10187000FB685A607B6800221A61FB681B685A1E6D
:10188000FB681A60FB681B6818461437BD465DF894
:10189000047B704780B584B000AF786001F01EFA19
:1018A0000346FB60074B00221A70064A0021022003
:1018B000FFF766F807F10C036421184601F042F8BF
:1018C000F0E700BF59C8002080B584B000AF786051
:1018D00001F004FA0346BB60104B1B78002B0CBFD1
:1018E00001230023DBB21A4600210120FEF732FF5C
:1018F00001233B7300237B73084B1B78002B0CBF29
:1019000001230023DBB2BB73F868FFF709FA07F184
:1019100008036421184601F015F8DDE759C80020D6
:1019200080B584B000AF786001F0D8F90346FB6061
:10193000074B00221A70064A02210220FFF720F806
:1019400007F10C034FF47A71184600F0FBFFEFE744
:1019500058C8002080B584B000AF786001F0BEF9AF
:101960000346BB600C4B1B781A4602210120FEF790
:10197000F1FE02233B7300237B73074B1B78BB7381
:10198000F868FFF7CDF907F108034FF47A711846AC
:1019900000F0D8FFE6E700BF58C8002080B584B04B
:1019A00000AF786001F09AF90346FB60074B012213
:1019B0001A70064A01210220FEF7E2FF07F10C032C
:1019C0004FF47A71184600F0BDFFEFE75AC80020C7
:1019D00080B584B000AF786001F080F90346FB6009
:1019E000094B1B78002B0CBF01230023DBB21A46E6
:1019F00001210120FEF7AEFE07F10C034FF47A71CE
:101A0000184600F09FFFEBE75AC8002080B584B06D
:101A100000AF786001F062F90346FB60FEF712FC4C
:101A200005490648FEF7FEFC07F10C034FF4FA6186
:101A3000184600F087FFF1E75CC800205BC8002073
:101A400080B584B000AF786001F048F90346BB6010
:101A5000224B93F90030192B0ADD012204210120C9
:101A6000FEF778FE002205210120FEF773FE19E043
:101A70001A4B93F90030182B0ADC012205210120B2
:101A8000FEF768FE002204210120FEF763FE09E054
:101A9000002204210120FEF75DFE00220521012025
:101AA000FEF758FE00233B7301237B730B4B93F926
:101AB0000030DBB2BB73F868FFF732F900237B73A9
:101AC000074B1B78BB73F868FFF72AF907F1080387
:101AD0004FF4FA61184600F035FFB9E75CC8002002
:101AE0005BC8002080B584B004AFFFF73FF9002148
:101AF0000120FFF7EFF901210120FFF7EBF90E219B
:101B00000320FFF7E7F9002200210220FEF708FD7D
:101B1000012200210120FEF703FD00220121022005
:101B2000FEF7FEFC002201210220FEF77BFD0122D0
:101B300001210220FEF788FF012201210220FEF789
:101B400009FE012201210120FEF7EAFC0022022108
:101B50000220FEF7E5FC012202210120FEF7E0FC55
:101B6000012204210120FEF7DBFC012205210120D6
:101B7000FEF7D6FC02220C210220FEF7D1FC412206
:101B80000C210220FEF7E2FF02220D210220FEF7C7
:101B9000C7FC41220D210220FEF7D8FF02220E21B0
:101BA0000220FEF7BDFC41220E210220FEF7CEFFEF
:101BB00002220F210220FEF7B3FC41220F21022056
:101BC000FEF7C4FF3148FFF772FA012302930123A5
:101BD0000193002300930723002200212B48FFF7E5
:101BE000CFF9FEF7FDFA00230193072300930023AA
:101BF00064220021264800F037FD002301930623CC
:101C00000093002364220021224800F02DFD0023D0
:101C10000193052300930023642200211E4800F055
:101C200023FD002301930523009300236422002158
:101C30001A4800F019FD00230193042300930023A8
:101C400064220021164800F00FFD002301930423B5
:101C50000093002364220021124800F005FD0023B8
:101C60000193032300930023642200210E4800F017
:101C7000FBFC002301930223009300236422002134
:101C80000A4800F0F1FC00F0DBFEFEE700380040FF
:101C900095180008C91800089D19000821190008A6
:101CA000D1190008551900080D1A0008411A00083A
:101CB00080B485B000AFF860B9607A60FB68043B1F
:101CC000FB60FB684FF080721A60FB68043BFB60AE
:101CD000BB6823F00102FB681A60FB68043BFB60F1
:101CE0000C4AFB681A60FB68143BFB607A68FB686F
:101CF0001A60FB68043BFB60FB686FF002021A602D
:101D0000FB68203BFB60FB6818461437BD465DF856
:101D1000047B7047191D000880B485B000AF002314
:101D20007B60124B1B68B3F1FF3F0AD04FF05003AA
:101D300083F31188BFF36F8FBFF34F8FFB6000BF3A
:101D4000FEE74FF0500383F31188BFF36F8FBFF3AB
:101D50004F8FBB6000BF00BF7B68002BFCD000BF73
:101D600000BF1437BD465DF8047B704700000020BB
:101D7000074B19680868B0E8F04F80F30988BFF393
:101D80006F8F4FF0000080F311887047AFF3008031
:101D9000A4C8002000BF00BF08480068006880F3A6
:101DA00008884FF0000080F3148862B661B6BFF374
:101DB0004F8FBFF36F8F00DF00BF000008ED00E022
:101DC00000BF00BF80B586B000AF464B1B68464AD7
:101DD00093420AD14FF0500383F31188BFF36F8F02
:101DE000BFF34F8F3B6100BFFEE73E4B1B683F4A8E
:101DF00093420AD14FF0500383F31188BFF36F8FE2
:101E0000BFF34F8FFB6000BFFEE7394B7B617B69FF
:101E10001B78DBB27B607B69FF221A707B691B78C1
:101E2000DBB2FB70FB78DBB203F05003DAB2314B6C
:101E30001A70314B07221A6009E02F4B1B68013BD7
:101E40002D4A1360FB78DBB25B00DBB2FB70FB78E2
:101E5000DBB203F08003802BEFD0274B1B68C3F16C
:101E60000703042B0AD04FF0500383F31188BFF30C
:101E70006F8FBFF34F8FBB6000BFFEE71E4B1B6829
:101E80001B021D4A13601C4B1B6803F4E0631A4AD3
:101E900013607B68DAB27B691A70184B1B68174AAB
:101EA00043F470031360154B1B68144A43F07043EE
:101EB000136000F0DBF8124B00221A6000F0F0F81B
:101EC000104B1B680F4A43F040431360FFF764FF59
:101ED00001F008F8FFF720FF002318461837BD4629
:101EE00080BD00BF00ED00E071C20F4170C20F4124
:101EF00000E400E05DC8002060C8002020ED00E0A4
:101F00000000002034EF00E080B483B000AF4FF059
:101F1000500383F31188BFF36F8FBFF34F8F7B6044
:101F200000BF0F4B1B6801330D4A13600C4B1B683D
:101F3000012B0FD10B4B1B68DBB2002B0AD04FF0EB
:101F4000500383F31188BFF36F8FBFF34F8F3B6054
:101F500000BFFEE700BF0C37BD465DF8047B70474D
:101F60000000002004ED00E080B483B000AF124B0D
:101F70001B68002B0AD14FF0500383F31188BFF385
:101F80006F8FBFF34F8F7B6000BFFEE70A4B1B686C
:101F9000013B094A1360084B1B68002B05D1002345
:101FA0003B603B6883F3118800BF00BF0C37BD4620
:101FB0005DF8047B704700BF0000002000000000B7
:101FC000EFF30980BFF36F8F154B1A681EF0100FE7
:101FD00008BF20ED108A20E9F04F10602DE90900BC
:101FE0004FF0500080F31188BFF34F8FBFF36F8F16
:101FF00000F078FF4FF0000080F3118809BC1968E9
:102000000868B0E8F04F1EF0100F08BFB0EC108A5F
:1020100080F30988BFF36F8F704700BFAFF3008074
:10202000A4C8002000BF00BF80B582B000AF4FF051
:10203000500383F31188BFF36F8FBFF34F8F7B6023
:1020400000BF00F05BFE0346002B03D0064B4FF0B1
:1020500080521A6000233B603B6883F3118800BF05
:1020600000BF0837BD4680BD04ED00E080B400AF7E
:10207000084B00221A60084B00221A60074B46F2F8
:10208000A7121A60034B07221A6000BFBD465DF815
:10209000047B704710E000E018E000E014E000E08E
:1020A000DFF80C00016841F4700101607047000026
:1020B00088ED00E000BF00BF80B586B000AF78605B
:1020C000396001237B617B683B613B69002B0AD14E
:1020D0004FF0500383F31188BFF36F8FBFF34F8F1F
:1020E000FB6000BFFEE73B69002B52D03B69DB6B16
:1020F000002B4ED03B691A6C3B69DB6B0021A3FBC4
:102100000223002B00D001210B46002B41D1FFF709
:10211000FBFE3B691A683B69DB6B3969096C01FBA3
:1021200003F31A443B699A603B6900229A633B6956
:102130001A683B695A603B691A683B69DB6B013B73
:102140003969096C01FB03F31A443B69DA603B69A6
:10215000FF2283F844203B69FF2283F845203B6837
:10216000002B09D13B691B69002B0FD03B69103351
:10217000184600F07DFF09E03B6910331846FFF771
:10218000F9FA3B6924331846FFF7F4FAFFF7ECFE3F
:1021900001E000237B617B69002B0AD14FF05003E3
:1021A00083F31188BFF36F8FBFF34F8FBB6000BF06
:1021B000FEE77B6918461837BD4680BD80B58AB0FA
:1021C00002AFF860B9601346FB710023FB61FB6846
:1021D000002B2ED00021BA68FB68A3FB0223002B42
:1021E00000D001210B46002B23D1FB68BA6802FB0B
:1021F00003F313F1510F1CD8FB68BA6802FB03F319
:10220000BB61BB6950331846FFF7B6F8F861FB694C
:10221000002B1CD0FB697B617B6950337B61FA79B1
:10222000FB69009313467A69B968F86800F014F8FE
:102230000DE0FB69002B0AD14FF0500383F31188A6
:10224000BFF36F8FBFF34F8F3B6100BFFEE7FB69AA
:1022500018462037BD4680BD80B584B000AFF86019
:10226000B9607A60FB70BB68002B03D1BB69BA69A7
:102270001A6002E0BB697A681A60BB69FA68DA63BF
:10228000BB69BA681A640121B869FFF715FFBB6919
:10229000FA7883F84C2000BF1037BD4680BD00009F
:1022A00080B58CB000AFF860B9607A600023FB6243
:1022B000FB68BB62BB6A002B0AD14FF0500383F36B
:1022C0001188BFF36F8FBFF34F8F3B6200BFFEE7F4
:1022D000BB68002B03D1BB6A1B6C002B01D101230F
:1022E00000E00023002B0AD14FF0500383F3118844
:1022F000BFF36F8FBFF34F8FFB6100BFFEE701F0AD
:10230000C1F80346002B02D17B68002B01D10123C9
:1023100000E00023002B0AD14FF0500383F3118813
:10232000BFF36F8FBFF34F8FBB6100BFFEE7FFF7B7
:10233000EBFDBB6A9B6B7B627B6A002B14D0B96898
:10234000B86A00F081F87B6A5A1EBB6A9A63BB6A5E
:102350001B69002B04D0BB6A1033184600F088FEBE
:10236000FFF702FE012369E07B68002B03D1FFF732
:10237000FBFD002362E0FB6A002B06D107F110038E
:10238000184600F04BFF0123FB62FFF7EDFD00F064
:10239000A9FBFFF7B9FDBB6A93F844305BB2B3F118
:1023A000FF3F03D1BB6A002283F84420BB6A93F845
:1023B00045305BB2B3F1FF3F03D1BB6A002283F823
:1023C0004520FFF7D1FD3A1D07F1100311461846CD
:1023D00000F03AFF0346002B23D1B86A00F0ACF8B6
:1023E0000346002B17D0BB6A24337A68114618467F
:1023F00000F0D4FDB86A00F04DF800F081FB034610
:10240000002B94D10F4B4FF080521A60BFF34F8FC7
:10241000BFF36F8F8BE7B86A00F03CF800F070FBF9
:1024200085E7B86A00F036F800F06AFBB86A00F099
:1024300083F80346002B3FF47AAF00231846303769
:10244000BD4680BD04ED00E080B582B000AF78608D
:1024500039607B681B6C002B18D07B68DA687B685E
:102460001B6C1A447B68DA607B68DA687B689B685F
:102470009A4203D37B681A687B68DA607B68D96804
:102480007B681B6C1A46386801F06CFB00BF08378C
:10249000BD4680BD80B584B000AF7860FFF734FDE5
:1024A0007B6893F84530FB7311E07B685B6A002B17
:1024B00012D07B682433184600F0DAFD0346002B67
:1024C00001D000F027FFFB7B013BDBB2FB7397F9E8
:1024D0000F30002BE9DC00E000BF7B68FF2283F8AF
:1024E0004520FFF741FDFFF70FFD7B6893F844306F
:1024F000BB7311E07B681B69002B12D07B68103323
:10250000184600F0B5FD0346002B01D000F002FF95
:10251000BB7B013BDBB2BB7397F90E30002BE9DCD0
:1025200000E000BF7B68FF2283F84420FFF71CFD1A
:1025300000BF1037BD4680BD80B584B000AF786065
:10254000FFF7E2FC7B689B6B002B02D10123FB6051
:1025500001E00023FB60FFF707FDFB68184610371A
:10256000BD4680BD80B487B000AF786039607B68BD
:10257000002B0AD14FF0500383F31188BFF36F8F04
:10258000BFF34F8FFB6000BFFEE700233B613B685A
:10259000002B24D000237B611EE0184A7B69DB00FE
:1025A00013445B687A689A4205D17B69DB00134A61
:1025B00013443B6113E03B69002B0AD10F4A7B694E
:1025C00052F83330002B04D17B69DB000B4A1344F3
:1025D0003B617B6901337B617B69072BDDD93B69FB
:1025E000002B05D03B693A681A603B697A685A60EB
:1025F00000BF1C37BD465DF8047B704764C80020EF
:1026000080B586B000AFF860B9607A60FB687B6126
:10261000FFF77AFC7B6993F844305BB2B3F1FF3F7C
:1026200003D17B69002283F844207B6993F845300D
:102630005BB2B3F1FF3F03D17B69002283F84520F1
:10264000FFF792FC7B699B6B002B06D17B692433DF
:102650007A68B968184600F0C5FC7869FFF71AFF78
:1026600000BF1837BD4680BD80B58CB004AFF860A0
:10267000B9603B601346FB80FB889B001846FEF761
:102680007BFE78617B69002B0ED05820FEF774FE2C
:10269000F861FB69002B03D0FB697A691A6305E0D6
:1026A0007869FEF749FF01E00023FB61FB69002B1D
:1026B00013D0FA8800230393FB690293FB6A01930A
:1026C000BB6A00933B68B968F86800F00EF8F869D7
:1026D00000F0B0F80123BB6102E04FF0FF33BB61B3
:1026E000BB6918462037BD4680BD80B588B000AFB5
:1026F000F860B9607A603B603B6B186B7B689B004D
:102700001A46A52101F03CFA3B6B1A6B7B6803F17A
:102710008043013B9B001344BB61BB6923F007036B
:10272000BB61BB6903F00703002B0AD04FF05003D5
:1027300083F31188BFF36F8FBFF34F8F7B6100BFAF
:10274000FEE7BB68002B1FD00023FB6112E0BA68D4
:10275000FB69134419783A6BFB69134434330A4616
:102760001A70BA68FB6913441B78002B06D0FB690A
:102770000133FB61FB69092BE9D900E000BF3B6B2A
:10278000002283F83D2003E03B6B002283F83420D5
:10279000BB6A082B0AD94FF0500383F31188BFF3AB
:1027A0006F8FBFF34F8F3B6100BFFEE7BB6A082B03
:1027B00001D90823BB623B6BBA6ADA623B6BBA6A27
:1027C0009A643B6B0022DA643B6B04331846FEF7D5
:1027D000F1FF3B6B18331846FEF7ECFF3B6B3A6B8F
:1027E0001A61BB6AC3F109023B6B9A613B6B3A6B9E
:1027F0005A623B6B503304220021184601F0C0F9A5
:102800003B6B543301220021184601F0B9F93A68B4
:10281000F968B869FFF74CFA02463B6B1A60FB6A2D
:10282000002B02D0FB6A3A6B1A6000BF2037BD460E
:1028300080BD000080B584B000AF7860FFF764FB16
:102840003A4B1B680133394A1360394B1B68002B24
:1028500009D1374A7B681360344B1B68012B10D1B8
:1028600000F076FD0DE0334B1B68002B09D1304B97
:102870001B68DA6A7B68DB6A9A4202D82C4A7B685A
:1028800013602D4B1B6801332B4A13602A4B1A68C7
:102890007B681A647B68DB6A01229A40274B1B68BD
:1028A0001343264A13607B68DA6A254913469B0066
:1028B00013449B000B4404331B68FB607B68FA687D
:1028C0009A60FB689A687B68DA60FB689B687A6844
:1028D00004325A607B681A1DFB689A607B68DA6A6A
:1028E00013469B0013449B00154A1A447B685A61A7
:1028F0007B68DA6A124913469B0013449B000B4421
:102900001B68591C0E4813469B0013449B0003444C
:102910001960FFF729FB074B1B68002B01D0044B04
:102920001B6800BF1037BD4680BD00BFCCC900206A
:10293000A4C80020D8C90020E8C90020D4C90020BC
:10294000A8C8002080B58AB000AF78603960002345
:102950007B627B68002B0AD14FF0500383F3118810
:10296000BFF36F8FBFF34F8F7B6100BFFEE73B6804
:10297000002B0AD14FF0500383F31188BFF36F8F00
:10298000BFF34F8F3B6100BFFEE72A4B1B68002B54
:102990000AD04FF0500383F31188BFF36F8FBFF35A
:1029A0004F8FFB6000BFFEE700F09CF8224B1B68D6
:1029B0003B627B681B683A681344FB617B681B6859
:1029C0003A6A9A420BD27B681B68FA699A4211D222
:1029D000FA693B6A9A420DD901237B620AE07B685F
:1029E0001B68FA699A4203D3FA693B6A9A4201D991
:1029F00001237B627B68FA691A607B6A002B06D030
:102A0000FA693B6AD31A0021184600F059FD00F01C
:102A100077F8B861BB69002B07D1084B4FF08052A3
:102A20001A60BFF34F8FBFF36F8F7B6A184628374A
:102A3000BD4680BDF4C90020D0C9002004ED00E0EF
:102A400080B586B002AF204B019300230093002392
:102A500080221E491E48FFF707FEF860FB68012B25
:102A600002D100F0ADFDF860FB68012B16D14FF0EC
:102A7000500383F31188BFF36F8FBFF34F8FBB6099
:102A800000BF144B4FF0FF321A60134B01221A6043
:102A9000124B00221A60FFF795F90EE0FB68B3F1C4
:102AA000FF3F0AD14FF0500383F31188BFF36F8FBC
:102AB000BFF34F8F7B6000BFFEE7094B1B6800BF71
:102AC0001037BD4680BD00BFF0C90020A83B0008FC
:102AD0002D330008ECC90020D8C90020D0C900203F
:102AE0000400002080B400AF044B1B680133034A8C
:102AF000136000BFBD465DF8047B7047F4C9002039
:102B000080B588B000AF0023FB6100237B616B4B75
:102B10001B68002B0AD14FF0500383F31188BFF3D9
:102B20006F8FBFF34F8F7B6000BFFEE7FFF7ECF9BD
:102B3000624B1B68013B614A1360604B1B68002BB2
:102B400040F0B4805E4B1B68002B00F0AF808AE041
:102B50005C4BDB68DB68FB61FB699B6A3B61FB6983
:102B6000DB69FA69126A9A60FB691B6AFA69D269C1
:102B70005A603B695A68FB6918339A4203D1FB6972
:102B80001A6A3B695A60FB6900229A623B691B68BA
:102B90005A1E3B691A60FB695B69FB60FB699B68B5
:102BA000FA69D2689A60FB69DB68FA6992685A60D0
:102BB000FB685A68FB6904339A4203D1FB69DA68FF
:102BC000FB685A60FB6900225A61FB681B685A1E49
:102BD000FB681A60FB69DB6A01229A403A4B1B686A
:102BE0001343394A1360FB69DA6A384913469B007C
:102BF00013449B000B4404331B68BB60FB69BA6839
:102C00009A60BB689A68FB69DA60BB689B68FA697E
:102C100004325A60FB691A1DBB689A60FB69DA6A64
:102C200013469B0013449B00284A1A44FB695A61CF
:102C3000FB69DA6A254913469B0013449B000B4449
:102C40001B68591C214813469B0013449B000344F6
:102C50001960FB69DA6A1E4B1B68DB6A9A4202D371
:102C60001C4B01221A60174B1B68002B7FF470AFBE
:102C7000FB69002B01D000F0E9FB174B1B68BB611F
:102C8000BB69002B10D000F039F80346002B02D0AE
:102C9000104B01221A60BB69013BBB61BB69002B71
:102CA000F1D10D4B00221A600A4B1B68FFF75CF94B
:102CB0007B6918462037BD4680BD00BFF4C900209F
:102CC000CCC900208CC90020D4C90020A8C800208D
:102CD000A4C80020E0C90020DCC9002080B483B073
:102CE00000AF054B1B687B607B6818460C37BD4600
:102CF0005DF8047B704700BFD0C9002080B58AB062
:102D000000AF00237B626E4B1B68002B40F0CD8030
:102D10006C4B1B6801333B626A4A3B6A13603B6A37
:102D2000002B20D1684B1B681B68002B0AD04FF08A
:102D3000500383F31188BFF36F8FBFF34F8F7B6016
:102D400000BFFEE7604B1B68FB61604B1B685E4A7F
:102D500013605E4AFB6913605D4B1B6801335C4A7C
:102D6000136000F073FB5B4B1B683A6A9A42C0F039
:102D7000A180554B1B681B68002B04D1554B4FF0AD
:102D8000FF321A6096E0504B1B68DB68DB68BB6162
:102D9000BB695B687B613A6A7B699A4203D24D4AA0
:102DA0007B69136086E0BB695B693B61BB699B68BB
:102DB000BA69D2689A60BB69DB68BA6992685A607E
:102DC0003B695A68BB6904339A4203D1BB69DA682C
:102DD0003B695A60BB6900225A613B691B685A1EF5
:102DE0003B691A60BB699B6A002B1ED0BB699B6A5A
:102DF000FB60BB69DB69BA69126A9A60BB691B6ACE
:102E0000BA69D2695A60FB685A68BB6918339A423A
:102E100003D1BB691A6AFB685A60BB6900229A62D7
:102E2000FB681B685A1EFB681A60BB69DB6A0122DB
:102E30009A40294B1B681343274A1360BB69DA6A1F
:102E4000264913469B0013449B000B4404331B6824
:102E5000BB60BB69BA689A60BB689A68BB69DA6094
:102E6000BB689B68BA6904325A60BB691A1DBB68AB
:102E70009A60BB69DA6A13469B0013449B00174AA9
:102E80001A44BB695A61BB69DA6A144913469B004C
:102E900013449B000B441B68591C104813469B00AD
:102EA00013449B000344196063E70D4B1B68013317
:102EB0000B4A13607B6A18462837BD4680BD00BFA9
:102EC000F4C90020D0C9002084C9002088C900208E
:102ED000E4C90020ECC90020D4C90020A8C8002003
:102EE000DCC9002080B487B000AF274B1B68002BE3
:102EF00003D0264B01221A603FE0244B00221A60C7
:102F0000234B1B68FB60FB68B3FA83F3FB72FB7A0D
:102F1000C3F11F037B611F497A6913469B00134469
:102F20009B000B441B68002B0AD14FF0500383F326
:102F30001188BFF36F8FBFF34F8F7B6000BFFEE739
:102F40007A6913469B0013449B00124A13443B6169
:102F50003B695B685A683B695A603B695A683B69E0
:102F600008339A4204D13B695B685A683B695A60EE
:102F70003B695B68DB68084A136000BF1C37BD46CD
:102F80005DF8047B704700BFF4C90020E0C9002051
:102F9000D4C90020A8C80020A4C8002080B584B0EF
:102FA00000AF786039607B68002B0AD14FF0500386
:102FB00083F31188BFF36F8FBFF34F8FFB6000BFA8
:102FC000FEE7074B1B68183319467868FEF7FFFBCE
:102FD0000121386800F074FA00BF1037BD4680BD8B
:102FE000A4C8002080B586B000AFF860B9607A60F0
:102FF000FB68002B0AD14FF0500383F31188BFF315
:103000006F8FBFF34F8F3B6100BFFEE7FB685B68CC
:103010007B61164B1B687A69DA61144B1B687A690D
:1030200092681A62114B1A687B699B6818325A6061
:103030000E4B1B6803F118027B699A600B4B1B68EF
:10304000FA689A62FB681B685A1CFB681A607B6806
:10305000002B02D04FF0FF33BB607968B86800F0F6
:103060002FFA00BF1837BD4680BD00BFA4C800209E
:1030700080B48BB000AF78607B68DB68DB683B6254
:103080003B6A002B0AD14FF0500383F31188BFF342
:103090006F8FBFF34F8FFB6000BFFEE73B6A9B6AF9
:1030A000FB613B6ADB693A6A126A9A603B6A1B6A97
:1030B0003A6AD2695A60FB695A683B6A18339A4285
:1030C00003D13B6A1A6AFB695A603B6A00229A6222
:1030D000FB691B685A1EFB691A604A4B1B68002B70
:1030E0005ED13B6A5B697B613B6A9B683A6AD268E6
:1030F0009A603B6ADB683A6A92685A607B695A68F0
:103100003B6A04339A4203D13B6ADA687B695A60AE
:103110003B6A00225A617B691B685A1E7B691A60F0
:103120003B6ADB6A01229A40374B1B681343364ADD
:1031300013603B6ADA6A354913469B0013449B00CF
:103140000B4404331B683B613B6A3A699A603B69F4
:103150009A683B6ADA603B699B683A6A04325A6053
:103160003B6A1A1D3B699A603B6ADA6A13469B0008
:1031700013449B00254A1A443B6A5A613B6ADA6A47
:10318000224913469B0013449B000B441B68591CA7
:103190001E4813469B0013449B00034419601BE028
:1031A0001B4B5B68BB613B6ABA69DA61BB699A68B1
:1031B0003B6A1A62BB699B683A6A18325A603B6A7A
:1031C00003F11802BB699A603B6A114A9A62104B7C
:1031D0001B6801330E4A13603B6ADA6A0D4B1B68A9
:1031E000DB6A9A4205D901237B620B4B01221A60EC
:1031F00001E000237B627B6A18462C37BD465DF8F0
:10320000047B7047F4C90020D4C90020A8C800205E
:103210008CC90020A4C80020E0C9002080B483B07D
:1032200000AF7860064B1A687B681A60054B1A6815
:103230007B685A6000BF0C37BD465DF8047B704761
:10324000E4C90020D0C9002080B588B000AF786004
:1032500039607B68002B0AD14FF0500383F311884B
:10326000BFF36F8FBFF34F8F3B6100BFFEE73B683B
:10327000002B0AD14FF0500383F31188BFF36F8FF7
:10328000BFF34F8FFB6000BFFEE7FEF73DFE1F4B15
:103290001B68BB617B685B68BA69D31A7B613B685A
:1032A0001B68B3F1FF3F02D10023FB6126E07B687E
:1032B0001A68174B1B689A420AD07B685B68BA6928
:1032C0009A4205D30123FB613B6800221A6015E096
:1032D0003B681B687A699A420BD23B681A687B6923
:1032E000D21A3B681A607868FFF798FF0023FB61E9
:1032F00004E03B6800221A600123FB61FEF734FE04
:10330000FB6918462037BD4680BD00BFD0C90020EC
:10331000E4C9002080B400AF034B01221A6000BF53
:10332000BD465DF8047B7047E0C9002080B582B0DF
:1033300000AF786000F04CF8044B4FF080521A60F8
:10334000BFF34F8FBFF36F8FF4E700BF04ED00E0D2
:1033500080B582B000AF00237B600CE07A68134632
:103360009B0013449B00124A13441846FEF702FACE
:103370007B6801337B607B68082BEFD90D48FEF733
:10338000F9F90D48FEF7F6F90C48FEF7F3F90C4889
:10339000FEF7F0F90B48FEF7EDF90B4B054A1A6002
:1033A0000A4B054A1A6000BF0837BD4680BD00BF02
:1033B000A8C800205CC9002070C900208CC900206A
:1033C000A0C90020B8C9002084C9002088C90020F5
:1033D00080B582B000AF19E0FEF796FD104BDB68B8
:1033E000DB687B607B6804331846FEF729FA0D4BD7
:1033F0001B68013B0B4A13600B4B1B68013B0A4ADD
:103400001360FEF7B1FD786800F010F8064B1B68FA
:10341000002BE1D100BF00BF0837BD4680BD00BF13
:10342000A0C90020CCC90020B4C9002080B582B05A
:1034300000AF78607B681B6B1846FEF77DF87868F4
:10344000FEF77AF800BF0837BD4680BD80B400AFF4
:103450000A4B1B681B68002B04D1094B4FF0FF324D
:103460001A6005E0054B1B68DB681B68044A1360A3
:1034700000BFBD465DF8047B704700BF84C90020D3
:10348000ECC9002080B483B000AF0B4B1B68002B4D
:1034900002D101237B6008E0084B1B68002B02D19E
:1034A00002237B6001E000237B607B6818460C37B9
:1034B000BD465DF8047B7047D8C90020F4C90020E0
:1034C00080B586B000AF78603960364B1B687B6191
:1034D000354B1B6804331846FEF7B2F90346002B40
:1034E0000BD1314B1B68DB6A012202FA03F3DA438A
:1034F0002E4B1B6813402D4A13607B68B3F1FF3FCE
:1035000024D13B68002B21D0294B5B683B61264BC3
:103510001B683A699A60244B1B683A699268DA60C2
:10352000214B1A683B699B6804325A601E4B1B682A
:103530001A1D3B699A601C4B1B681D4A5A611C4B43
:103540001B6801331A4A136000BF26E07A697B6862
:103550001344FB60144B1B68FA685A60FA687B6975
:103560009A4209D2134B1A680F4B1B680433194651
:103570001046FEF72CF910E00F4B1A680A4B1B6837
:10358000043319461046FEF722F90C4B1B68FA6803
:103590009A4202D2094AFB68136000BF1837BD4641
:1035A00080BD00BFD0C90020A4C80020D4C900201D
:1035B000B8C9002088C9002084C90020ECC90020B7
:1035C00080B584B002AF00237B6000F047FA114B56
:1035D0001B68002B0BD0104B019301230093002399
:1035E0004FF480720D490E48FFF73EF878607B6813
:1035F000002B0AD14FF0500383F31188BFF36F8F74
:10360000BFF34F8F3B6000BFFEE77B68184608376B
:10361000BD4680BD28CA00202CCA0020B03B00084F
:10362000C936000880B584B000AFF860B9607A6030
:1036300008E0FB689B69BA681344BB60FB681B6ABF
:10364000F8689847FB689A69BB68D118BB687A68C4
:10365000F86800F0DDF80346002BEAD100BF00BF98
:103660001037BD4680BD000080B584B000AF7860E3
:103670003960144B1B68DB68DB68FB60FB68043354
:103680001846FEF7DDF8FB6893F8283003F00403D2
:10369000002B05D03A687968F868FFF7C3FF08E0A7
:1036A000FB6893F8283023F00103DAB2FB6883F853
:1036B0002820FB681B6AF868984700BF1037BD4692
:1036C00080BD00BF20CA002080B584B000AF786004
:1036D00007F10803184600F057F8F860BB68194670
:1036E000F86800F003F800F0D5F8F1E780B584B091
:1036F00000AF78603960FFF7F5F907F10803184665
:1037000000F066F8F860BB68002B30D13B68002BF6
:103710000AD17A68FB689A4206D8FFF7F1F9F9688E
:103720007868FFF7A1FF24E03B68002B08D0134B1B
:103730001B681B68002B01D1012300E000233B60C4
:103740000F4B18687A68FB68D31A3A681946FEF777
:1037500057FFFFF7D5F90346002B0AD1094B4FF06D
:1037600080521A60BFF34F8FBFF36F8F01E0FFF7F6
:10377000C7F900BF1037BD4680BD00BF24CA002076
:1037800028CA002004ED00E080B485B000AF786066
:103790000E4B1B681B68002B01D1012200E00022A8
:1037A0007B681A607B681B68002B05D1074B1B6880
:1037B000DB681B68FB6001E00023FB60FB681846C8
:1037C0001437BD465DF8047B704700BF20CA002057
:1037D00080B584B000AF7860FFF780FAF8600B4BDB
:1037E0001B68FA689A4205D200F012F97B68012240
:1037F0001A6002E07B6800221A60044AFB681360CA
:10380000FB6818461037BD4680BD00BF30CA002097
:1038100080B586B000AFF860B9607A603B60002385
:103820007B61FB68BA685A60FB68FA681A61BA681B
:103830007B689A4212D87A683B68D21AFB689B6907
:103840009A4202D301237B611BE0104B1A68FB688C
:10385000043319461046FDF7BAFF12E07A683B6858
:103860009A4206D2BA683B689A4202D301237B612E
:1038700007E0074B1A68FB68043319461046FDF74A
:10388000A6FF7B6918461837BD4680BD24CA0020B4
:1038900020CA002080B588B000AFA6E0BB68002B2E
:1038A000C0F2A2803B69FB61FB695B69002B04D01D
:1038B000FB6904331846FDF7C3FF3B1D1846FFF7AD
:1038C00087FFB861BB68013B082B00F28E8001A224
:1038D00052F823F0F9380008F93800086139000877
:1038E00075390008BF390008F9380008F9380008B0
:1038F0006139000875390008FB6993F8283043F0F6
:103900000103DAB2FB6983F82820FA68FB699B6936
:10391000D118FB68BA69F869FFF77AFF0346002BF4
:1039200063D0FB6993F8283003F00403002B09D01F
:10393000FA68FB699B691344BA691946F869FFF78D
:1039400071FE08E0FB6993F8283023F00103DAB236
:10395000FB6983F82820FB691B6AF869984744E0F3
:10396000FB6993F8283023F00103DAB2FB6983F88E
:1039700028203AE0FB6993F8283043F00103DAB2DB
:10398000FB6983F82820FA68FB699A61FB699B69E7
:10399000002B0AD14FF0500383F31188BFF36F8FD0
:1039A000BFF34F8F7B6100BFFEE7FB699A69BB697C
:1039B000D118BB69BA69F869FFF72AFF15E0FB69FE
:1039C00093F8283003F00203002B03D1F869FDF7C8
:1039D000B3FD0AE0FB6993F8283023F00103DAB263
:1039E000FB6983F8282000E000BF084B1B6807F143
:1039F000080100221846FEF753FC0346002B7FF413
:103A00004DAF00BF00BF2037BD4680BD28CA002093
:103A100080B582B000AF09E00E4B1B68DB681B6805
:103A20003B604FF0FF313868FFF71EFE094B1B6803
:103A30001B68002BF0D1074B1B687B60064B1B6893
:103A4000044A1360044A7B68136000BF0837BD4610
:103A500080BD00BF20CA002024CA002080B500AF6E
:103A6000FEF752FA124B1B68002B1DD11148FDF7CF
:103A700081FE1148FDF77EFE104B0E4A1A60104B76
:103A80000D4A1A6000220C210A20FEF797FB03461C
:103A9000074A1360064B1B68002B05D0044B1B68BC
:103AA00008491846FEF75EFDFEF75EFA00BF80BDCE
:103AB00028CA0020F8C900200CCA002020CA002013
:103AC00024CA0020B83B00080D488546AFF30080AB
:103AD0000C480D490D4A002302E0D458C450043369
:103AE000C4188C42F9D30A4A0A4C002301E013603F
:103AF0000432A242FBD300F011F8FDF7F3FFFEE71A
:103B0000000001200000002008000020F83B000811
:103B10000800002034CA0020FEE7000070B50D4DFB
:103B20000D4C641BA4100026A64209D10B4D0C4C71
:103B300000F02EF8641BA4100026A64205D170BD2B
:103B400055F8043B98470136EEE755F8043B984793
:103B50000136F2E7F03B0008F03B0008F03B0008BC
:103B6000F43B00080A44914200F1FF3300D1704752
:103B700010B511F8014B03F8014F9142F9D110BD76
:103B800002440346934200D1704703F8011BF9E752
:103B9000F8B500BFF8BC08BC9E467047F8B500BF3A
:083BA000F8BC08BC9E4670470A
:103BA80049444C4500000000546D72205376630070
:103BB800546D725100000000000000000000014038
:103BC800000000400004004000080040000C0040D5
:103BD800000000000000000000000000004001405C
:083BE8000044014000480140C7
:043BF000C501000803
:043BF400A101000823
:083BF800AAAAAAAA0800000015
:0400000508003AC9EC
:00000001FF
